:020000040000FA
:100000000030660086018C010C08860056205620C0
:100010005620562056200130860056208601562054
:100020005620562056200230860056208601562043
:100030005620562056200430860056208601562031
:10004000562056205620083086005620860156201D
:100050005620562056204D28103086005620860106
:1000600056205620562056202030860056208601E5
:1000700056205620562056204030860056208601B5
:100080005620562056205620803086005620860165
:1000900056205620562056204C280F3086005620D9
:1000A000860156205620562056204D28FF308E00BF
:0E00B000FF308D008D0B5A288E0B582808004B
:02400E00F13F80
:00000001FF
