:020000040000FA
:1000000000306600860101308E005A308C004F208F
:100010004F204F204F204F203C308D0016208D0B5D
:100020000E2838208C0B0C28152815280E08013AAC
:10003000031926280E08023A031929280E08033A44
:1000400003192C280E08043A03192F288E0A0230AF
:1000500033288E0A043033288E0A033033280130C7
:100060008E00053033288600462086014620080091
:10007000083086004F208601412041204120412048
:1000800008004F204F204F204F2008006430A00070
:10009000FF308F008F0B4A28A00B48280800FF3044
:1000A000A000FF308F008F0B5328A00B51280800B1
:02400E00F13F80
:00000001FF
